{
  "_format": "hh-sol-artifact-1",
  "contractName": "StrategyMock",
  "sourceName": "contracts/StrategyMock.sol",
  "abi": [
    {
      "anonymous": false,
      "inputs": [
        {
          "indexed": true,
          "internalType": "address",
          "name": "caller",
          "type": "address"
        },
        {
          "indexed": false,
          "internalType": "bytes",
          "name": "data",
          "type": "bytes"
        }
      ],
      "name": "Executed",
      "type": "event"
    },
    {
      "inputs": [
        {
          "internalType": "bytes",
          "name": "data",
          "type": "bytes"
        }
      ],
      "name": "execute",
      "outputs": [
        {
          "internalType": "bool",
          "name": "",
          "type": "bool"
        }
      ],
      "stateMutability": "nonpayable",
      "type": "function"
    },
    {
      "inputs": [],
      "name": "name",
      "outputs": [
        {
          "internalType": "string",
          "name": "",
          "type": "string"
        }
      ],
      "stateMutability": "pure",
      "type": "function"
    },
    {
      "stateMutability": "payable",
      "type": "receive"
    }
  ],
  "bytecode": "0x608060405234801561001057600080fd5b50610385806100206000396000f3fe60806040526004361061002d5760003560e01c806306fdde031461003957806309c5eabe1461006457610034565b3661003457005b600080fd5b34801561004557600080fd5b5061004e6100a1565b60405161005b91906101ca565b60405180910390f35b34801561007057600080fd5b5061008b6004803603810190610086919061025b565b6100de565b60405161009891906102c3565b60405180910390f35b60606040518060400160405280600c81526020017f53747261746567794d6f636b0000000000000000000000000000000000000000815250905090565b60003373ffffffffffffffffffffffffffffffffffffffff167f0dcf4ffb3b85ab072df6f9ed79b0382ec6c9619a98f36f4538d3b2e87fd3fd11848460405161012892919061032b565b60405180910390a26001905092915050565b600081519050919050565b600082825260208201905092915050565b60005b83811015610174578082015181840152602081019050610159565b60008484015250505050565b6000601f19601f8301169050919050565b600061019c8261013a565b6101a68185610145565b93506101b6818560208601610156565b6101bf81610180565b840191505092915050565b600060208201905081810360008301526101e48184610191565b905092915050565b600080fd5b600080fd5b600080fd5b600080fd5b600080fd5b60008083601f84011261021b5761021a6101f6565b5b8235905067ffffffffffffffff811115610238576102376101fb565b5b60208301915083600182028301111561025457610253610200565b5b9250929050565b60008060208385031215610272576102716101ec565b5b600083013567ffffffffffffffff8111156102905761028f6101f1565b5b61029c85828601610205565b92509250509250929050565b60008115159050919050565b6102bd816102a8565b82525050565b60006020820190506102d860008301846102b4565b92915050565b600082825260208201905092915050565b82818337600083830152505050565b600061030a83856102de565b93506103178385846102ef565b61032083610180565b840190509392505050565b600060208201905081810360008301526103468184866102fe565b9050939250505056fea2646970667358221220cb51dd4667ae2a1c85f280fe0c1382edb8a7c999892291c8ead646a5b6b0132c64736f6c63430008140033",
  "linkReferences": {},
  "deployedLinkReferences": {}
}