{
  "_format": "hh-sol-artifact-1",
  "contractName": "DAOTreasury",
  "sourceName": "contracts/DAOTreasury.sol",
  "abi": [
    {
      "inputs": [
        {
          "internalType": "address",
          "name": "initialOwner",
          "type": "address"
        }
      ],
      "stateMutability": "nonpayable",
      "type": "constructor"
    },
    {
      "inputs": [
        {
          "internalType": "address",
          "name": "owner",
          "type": "address"
        }
      ],
      "name": "OwnableInvalidOwner",
      "type": "error"
    },
    {
      "inputs": [
        {
          "internalType": "address",
          "name": "account",
          "type": "address"
        }
      ],
      "name": "OwnableUnauthorizedAccount",
      "type": "error"
    },
    {
      "anonymous": false,
      "inputs": [
        {
          "indexed": true,
          "internalType": "address",
          "name": "sender",
          "type": "address"
        },
        {
          "indexed": false,
          "internalType": "uint256",
          "name": "amount",
          "type": "uint256"
        }
      ],
      "name": "Deposit",
      "type": "event"
    },
    {
      "anonymous": false,
      "inputs": [
        {
          "indexed": true,
          "internalType": "address",
          "name": "previousOwner",
          "type": "address"
        },
        {
          "indexed": true,
          "internalType": "address",
          "name": "newOwner",
          "type": "address"
        }
      ],
      "name": "OwnershipTransferred",
      "type": "event"
    },
    {
      "anonymous": false,
      "inputs": [
        {
          "indexed": true,
          "internalType": "uint256",
          "name": "id",
          "type": "uint256"
        },
        {
          "indexed": true,
          "internalType": "address",
          "name": "proposer",
          "type": "address"
        },
        {
          "indexed": false,
          "internalType": "address",
          "name": "strategy",
          "type": "address"
        },
        {
          "indexed": false,
          "internalType": "string",
          "name": "description",
          "type": "string"
        }
      ],
      "name": "ProposalCreated",
      "type": "event"
    },
    {
      "anonymous": false,
      "inputs": [
        {
          "indexed": true,
          "internalType": "uint256",
          "name": "id",
          "type": "uint256"
        },
        {
          "indexed": true,
          "internalType": "address",
          "name": "executor",
          "type": "address"
        },
        {
          "indexed": false,
          "internalType": "bool",
          "name": "success",
          "type": "bool"
        }
      ],
      "name": "ProposalExecuted",
      "type": "event"
    },
    {
      "anonymous": false,
      "inputs": [
        {
          "indexed": true,
          "internalType": "address",
          "name": "oldRelayer",
          "type": "address"
        },
        {
          "indexed": true,
          "internalType": "address",
          "name": "newRelayer",
          "type": "address"
        }
      ],
      "name": "RelayerUpdated",
      "type": "event"
    },
    {
      "anonymous": false,
      "inputs": [
        {
          "indexed": true,
          "internalType": "uint256",
          "name": "id",
          "type": "uint256"
        },
        {
          "indexed": true,
          "internalType": "address",
          "name": "voter",
          "type": "address"
        },
        {
          "indexed": false,
          "internalType": "bool",
          "name": "support",
          "type": "bool"
        },
        {
          "indexed": false,
          "internalType": "uint256",
          "name": "weight",
          "type": "uint256"
        }
      ],
      "name": "Voted",
      "type": "event"
    },
    {
      "anonymous": false,
      "inputs": [
        {
          "indexed": true,
          "internalType": "address",
          "name": "to",
          "type": "address"
        },
        {
          "indexed": false,
          "internalType": "uint256",
          "name": "amount",
          "type": "uint256"
        }
      ],
      "name": "Withdraw",
      "type": "event"
    },
    {
      "inputs": [
        {
          "internalType": "address payable",
          "name": "to",
          "type": "address"
        },
        {
          "internalType": "uint256",
          "name": "amount",
          "type": "uint256"
        }
      ],
      "name": "emergencyWithdraw",
      "outputs": [],
      "stateMutability": "nonpayable",
      "type": "function"
    },
    {
      "inputs": [
        {
          "internalType": "uint256",
          "name": "proposalId",
          "type": "uint256"
        },
        {
          "internalType": "uint256",
          "name": "amount",
          "type": "uint256"
        }
      ],
      "name": "executeProposal",
      "outputs": [],
      "stateMutability": "nonpayable",
      "type": "function"
    },
    {
      "inputs": [
        {
          "internalType": "uint256",
          "name": "",
          "type": "uint256"
        },
        {
          "internalType": "address",
          "name": "",
          "type": "address"
        }
      ],
      "name": "hasVoted",
      "outputs": [
        {
          "internalType": "bool",
          "name": "",
          "type": "bool"
        }
      ],
      "stateMutability": "view",
      "type": "function"
    },
    {
      "inputs": [],
      "name": "owner",
      "outputs": [
        {
          "internalType": "address",
          "name": "",
          "type": "address"
        }
      ],
      "stateMutability": "view",
      "type": "function"
    },
    {
      "inputs": [],
      "name": "proposalCount",
      "outputs": [
        {
          "internalType": "uint256",
          "name": "",
          "type": "uint256"
        }
      ],
      "stateMutability": "view",
      "type": "function"
    },
    {
      "inputs": [
        {
          "internalType": "uint256",
          "name": "",
          "type": "uint256"
        }
      ],
      "name": "proposals",
      "outputs": [
        {
          "internalType": "address",
          "name": "proposer",
          "type": "address"
        },
        {
          "internalType": "address",
          "name": "strategy",
          "type": "address"
        },
        {
          "internalType": "bytes",
          "name": "data",
          "type": "bytes"
        },
        {
          "internalType": "uint256",
          "name": "votesFor",
          "type": "uint256"
        },
        {
          "internalType": "uint256",
          "name": "votesAgainst",
          "type": "uint256"
        },
        {
          "internalType": "uint256",
          "name": "startBlock",
          "type": "uint256"
        },
        {
          "internalType": "uint256",
          "name": "endBlock",
          "type": "uint256"
        },
        {
          "internalType": "bool",
          "name": "executed",
          "type": "bool"
        },
        {
          "internalType": "string",
          "name": "description",
          "type": "string"
        }
      ],
      "stateMutability": "view",
      "type": "function"
    },
    {
      "inputs": [
        {
          "internalType": "address",
          "name": "strategy",
          "type": "address"
        },
        {
          "internalType": "bytes",
          "name": "data",
          "type": "bytes"
        },
        {
          "internalType": "string",
          "name": "description",
          "type": "string"
        }
      ],
      "name": "propose",
      "outputs": [
        {
          "internalType": "uint256",
          "name": "",
          "type": "uint256"
        }
      ],
      "stateMutability": "nonpayable",
      "type": "function"
    },
    {
      "inputs": [],
      "name": "relayer",
      "outputs": [
        {
          "internalType": "address",
          "name": "",
          "type": "address"
        }
      ],
      "stateMutability": "view",
      "type": "function"
    },
    {
      "inputs": [],
      "name": "renounceOwnership",
      "outputs": [],
      "stateMutability": "nonpayable",
      "type": "function"
    },
    {
      "inputs": [
        {
          "internalType": "address",
          "name": "_relayer",
          "type": "address"
        }
      ],
      "name": "setRelayer",
      "outputs": [],
      "stateMutability": "nonpayable",
      "type": "function"
    },
    {
      "inputs": [
        {
          "internalType": "uint256",
          "name": "blocks",
          "type": "uint256"
        }
      ],
      "name": "setVotingPeriodBlocks",
      "outputs": [],
      "stateMutability": "nonpayable",
      "type": "function"
    },
    {
      "inputs": [
        {
          "internalType": "address",
          "name": "newOwner",
          "type": "address"
        }
      ],
      "name": "transferOwnership",
      "outputs": [],
      "stateMutability": "nonpayable",
      "type": "function"
    },
    {
      "inputs": [
        {
          "internalType": "uint256",
          "name": "proposalId",
          "type": "uint256"
        },
        {
          "internalType": "bool",
          "name": "support",
          "type": "bool"
        }
      ],
      "name": "vote",
      "outputs": [],
      "stateMutability": "nonpayable",
      "type": "function"
    },
    {
      "inputs": [],
      "name": "votingPeriodBlocks",
      "outputs": [
        {
          "internalType": "uint256",
          "name": "",
          "type": "uint256"
        }
      ],
      "stateMutability": "view",
      "type": "function"
    },
    {
      "stateMutability": "payable",
      "type": "receive"
    }
  ],
  "bytecode": "0x608060405260646005553480156200001657600080fd5b506040516200268b3803806200268b83398181016040528101906200003c9190620001fb565b8080600073ffffffffffffffffffffffffffffffffffffffff168173ffffffffffffffffffffffffffffffffffffffff1603620000b35760006040517f1e4fbdf7000000000000000000000000000000000000000000000000000000008152600401620000aa91906200023e565b60405180910390fd5b620000c481620000cd60201b60201c565b5050506200025b565b60008060009054906101000a900473ffffffffffffffffffffffffffffffffffffffff169050816000806101000a81548173ffffffffffffffffffffffffffffffffffffffff021916908373ffffffffffffffffffffffffffffffffffffffff1602179055508173ffffffffffffffffffffffffffffffffffffffff168173ffffffffffffffffffffffffffffffffffffffff167f8be0079c531659141344cd1fd0a4f28419497f9722a3daafe3b4186f6b6457e060405160405180910390a35050565b600080fd5b600073ffffffffffffffffffffffffffffffffffffffff82169050919050565b6000620001c38262000196565b9050919050565b620001d581620001b6565b8114620001e157600080fd5b50565b600081519050620001f581620001ca565b92915050565b60006020828403121562000214576200021362000191565b5b60006200022484828501620001e4565b91505092915050565b6200023881620001b6565b82525050565b60006020820190506200025560008301846200022d565b92915050565b612420806200026b6000396000f3fe6080604052600436106100e15760003560e01c80638da5cb5b1161007f578063b24b7ffd11610059578063b24b7ffd1461030b578063c9d27afe14610336578063da35c6641461035f578063f2fde38b1461038a57610136565b80638da5cb5b1461028e57806394924e55146102b957806395ccea67146102e257610136565b806343859632116100bb57806343859632146101e65780636548e9bc14610223578063715018a61461024c5780638406c0791461026357610136565b8063013cf08b1461013b5780631ab76712146101805780633153fedb146101a957610136565b36610136573373ffffffffffffffffffffffffffffffffffffffff167fe1fffcc4923d04b559f4d29a8bfc6cda04eb5b0d3c460751c2402c5c5cc9109c3460405161012c91906112f9565b60405180910390a2005b600080fd5b34801561014757600080fd5b50610162600480360381019061015d919061134a565b6103b3565b604051610177999897969594939291906114b8565b60405180910390f35b34801561018c57600080fd5b506101a760048036038101906101a29190611553565b61055e565b005b3480156101b557600080fd5b506101d060048036038101906101cb919061167a565b610884565b6040516101dd91906112f9565b60405180910390f35b3480156101f257600080fd5b5061020d6004803603810190610208919061170f565b610c60565b60405161021a919061174f565b60405180910390f35b34801561022f57600080fd5b5061024a6004803603810190610245919061176a565b610c8f565b005b34801561025857600080fd5b50610261610d57565b005b34801561026f57600080fd5b50610278610d6b565b6040516102859190611797565b60405180910390f35b34801561029a57600080fd5b506102a3610d91565b6040516102b09190611797565b60405180910390f35b3480156102c557600080fd5b506102e060048036038101906102db919061134a565b610dba565b005b3480156102ee57600080fd5b50610309600480360381019061030491906117f0565b610dcc565b005b34801561031757600080fd5b50610320610eb0565b60405161032d91906112f9565b60405180910390f35b34801561034257600080fd5b5061035d6004803603810190610358919061185c565b610eb6565b005b34801561036b57600080fd5b50610374611101565b60405161038191906112f9565b60405180910390f35b34801561039657600080fd5b506103b160048036038101906103ac919061176a565b611107565b005b60036020528060005260406000206000915090508060000160009054906101000a900473ffffffffffffffffffffffffffffffffffffffff16908060010160009054906101000a900473ffffffffffffffffffffffffffffffffffffffff1690806002018054610422906118cb565b80601f016020809104026020016040519081016040528092919081815260200182805461044e906118cb565b801561049b5780601f106104705761010080835404028352916020019161049b565b820191906000526020600020905b81548152906001019060200180831161047e57829003601f168201915b5050505050908060030154908060040154908060050154908060060154908060070160009054906101000a900460ff16908060080180546104db906118cb565b80601f0160208091040260200160405190810160405280929190818152602001828054610507906118cb565b80156105545780601f1061052957610100808354040283529160200191610554565b820191906000526020600020905b81548152906001019060200180831161053757829003601f168201915b5050505050905089565b6000600360008481526020019081526020016000209050806006015443116105bb576040517f08c379a00000000000000000000000000000000000000000000000000000000081526004016105b290611948565b60405180910390fd5b8060070160009054906101000a900460ff161561060d576040517f08c379a0000000000000000000000000000000000000000000000000000000008152600401610604906119b4565b60405180910390fd5b8060040154816003015411610657576040517f08c379a000000000000000000000000000000000000000000000000000000000815260040161064e90611a20565b60405180910390fd5b8147101561069a576040517f08c379a000000000000000000000000000000000000000000000000000000000815260040161069190611a8c565b60405180910390fd5b60018160070160006101000a81548160ff02191690831515021790555060008160010160009054906101000a900473ffffffffffffffffffffffffffffffffffffffff1673ffffffffffffffffffffffffffffffffffffffff168360405161070190611add565b60006040518083038185875af1925050503d806000811461073e576040519150601f19603f3d011682016040523d82523d6000602084013e610743565b606091505b5050905080610787576040517f08c379a000000000000000000000000000000000000000000000000000000000815260040161077e90611b3e565b60405180910390fd5b60008260010160009054906101000a900473ffffffffffffffffffffffffffffffffffffffff1673ffffffffffffffffffffffffffffffffffffffff166309c5eabe846002016040518263ffffffff1660e01b81526004016107e99190611bf7565b6020604051808303816000875af1158015610808573d6000803e3d6000fd5b505050506040513d601f19601f8201168201806040525081019061082c9190611c2e565b90503373ffffffffffffffffffffffffffffffffffffffff16857f4fce71a6eb6a89b3e4c71722f870a263627cbfddc3a603c307803d89ad39e7cb83604051610875919061174f565b60405180910390a35050505050565b6000600160009054906101000a900473ffffffffffffffffffffffffffffffffffffffff1673ffffffffffffffffffffffffffffffffffffffff163373ffffffffffffffffffffffffffffffffffffffff16148061091457506108e5610d91565b73ffffffffffffffffffffffffffffffffffffffff163373ffffffffffffffffffffffffffffffffffffffff16145b610953576040517f08c379a000000000000000000000000000000000000000000000000000000000815260040161094a90611ca7565b60405180910390fd5b600073ffffffffffffffffffffffffffffffffffffffff168673ffffffffffffffffffffffffffffffffffffffff16036109c2576040517f08c379a00000000000000000000000000000000000000000000000000000000081526004016109b990611d13565b60405180910390fd5b600260008154809291906109d590611d62565b9190505550600060025490506040518061012001604052803373ffffffffffffffffffffffffffffffffffffffff1681526020018873ffffffffffffffffffffffffffffffffffffffff16815260200187878080601f016020809104026020016040519081016040528093929190818152602001838380828437600081840152601f19601f820116905080830192505050505050508152602001600081526020016000815260200143815260200160055443610a919190611daa565b815260200160001515815260200185858080601f016020809104026020016040519081016040528093929190818152602001838380828437600081840152601f19601f820116905080830192505050505050508152506003600083815260200190815260200160002060008201518160000160006101000a81548173ffffffffffffffffffffffffffffffffffffffff021916908373ffffffffffffffffffffffffffffffffffffffff16021790555060208201518160010160006101000a81548173ffffffffffffffffffffffffffffffffffffffff021916908373ffffffffffffffffffffffffffffffffffffffff1602179055506040820151816002019081610b9d9190611fa4565b50606082015181600301556080820151816004015560a0820151816005015560c0820151816006015560e08201518160070160006101000a81548160ff021916908315150217905550610100820151816008019081610bfc91906120d1565b509050503373ffffffffffffffffffffffffffffffffffffffff16817fbf0fcd54b591a07a1943cf5eaf6fdd64e31bc7b4c469e9ba81fb00e21fd859f5898787604051610c4b939291906121df565b60405180910390a38091505095945050505050565b60046020528160005260406000206020528060005260406000206000915091509054906101000a900460ff1681565b610c9761118d565b8073ffffffffffffffffffffffffffffffffffffffff16600160009054906101000a900473ffffffffffffffffffffffffffffffffffffffff1673ffffffffffffffffffffffffffffffffffffffff167f605ca4e43489fb38b91aa63dd9147cd3847957694b080b9285ec898b34269f0c60405160405180910390a380600160006101000a81548173ffffffffffffffffffffffffffffffffffffffff021916908373ffffffffffffffffffffffffffffffffffffffff16021790555050565b610d5f61118d565b610d696000611214565b565b600160009054906101000a900473ffffffffffffffffffffffffffffffffffffffff1681565b60008060009054906101000a900473ffffffffffffffffffffffffffffffffffffffff16905090565b610dc261118d565b8060058190555050565b610dd461118d565b80471015610e17576040517f08c379a0000000000000000000000000000000000000000000000000000000008152600401610e0e9061225d565b60405180910390fd5b8173ffffffffffffffffffffffffffffffffffffffff166108fc829081150290604051600060405180830381858888f19350505050158015610e5d573d6000803e3d6000fd5b508173ffffffffffffffffffffffffffffffffffffffff167f884edad9ce6fa2440d8a54cc123490eb96d2768479d49ff9c7366125a942436482604051610ea491906112f9565b60405180910390a25050565b60055481565b60006003600084815260200190815260200160002090508060050154431015610f14576040517f08c379a0000000000000000000000000000000000000000000000000000000008152600401610f0b906122c9565b60405180910390fd5b8060060154431115610f5b576040517f08c379a0000000000000000000000000000000000000000000000000000000008152600401610f5290612335565b60405180910390fd5b6004600084815260200190815260200160002060003373ffffffffffffffffffffffffffffffffffffffff1673ffffffffffffffffffffffffffffffffffffffff16815260200190815260200160002060009054906101000a900460ff1615610ff9576040517f08c379a0000000000000000000000000000000000000000000000000000000008152600401610ff0906123a1565b60405180910390fd5b60016004600085815260200190815260200160002060003373ffffffffffffffffffffffffffffffffffffffff1673ffffffffffffffffffffffffffffffffffffffff16815260200190815260200160002060006101000a81548160ff021916908315150217905550600060019050821561108e57808260030160008282546110829190611daa565b925050819055506110aa565b808260040160008282546110a29190611daa565b925050819055505b3373ffffffffffffffffffffffffffffffffffffffff16847f7c2de587c00d75474a0c6c6fa96fd3b45dc974cd4e8a75f712bb84c950dce1b585846040516110f39291906123c1565b60405180910390a350505050565b60025481565b61110f61118d565b600073ffffffffffffffffffffffffffffffffffffffff168173ffffffffffffffffffffffffffffffffffffffff16036111815760006040517f1e4fbdf70000000000000000000000000000000000000000000000000000000081526004016111789190611797565b60405180910390fd5b61118a81611214565b50565b6111956112d8565b73ffffffffffffffffffffffffffffffffffffffff166111b3610d91565b73ffffffffffffffffffffffffffffffffffffffff1614611212576111d66112d8565b6040517f118cdaa70000000000000000000000000000000000000000000000000000000081526004016112099190611797565b60405180910390fd5b565b60008060009054906101000a900473ffffffffffffffffffffffffffffffffffffffff169050816000806101000a81548173ffffffffffffffffffffffffffffffffffffffff021916908373ffffffffffffffffffffffffffffffffffffffff1602179055508173ffffffffffffffffffffffffffffffffffffffff168173ffffffffffffffffffffffffffffffffffffffff167f8be0079c531659141344cd1fd0a4f28419497f9722a3daafe3b4186f6b6457e060405160405180910390a35050565b600033905090565b6000819050919050565b6112f3816112e0565b82525050565b600060208201905061130e60008301846112ea565b92915050565b600080fd5b600080fd5b611327816112e0565b811461133257600080fd5b50565b6000813590506113448161131e565b92915050565b6000602082840312156113605761135f611314565b5b600061136e84828501611335565b91505092915050565b600073ffffffffffffffffffffffffffffffffffffffff82169050919050565b60006113a282611377565b9050919050565b6113b281611397565b82525050565b600081519050919050565b600082825260208201905092915050565b60005b838110156113f25780820151818401526020810190506113d7565b60008484015250505050565b6000601f19601f8301169050919050565b600061141a826113b8565b61142481856113c3565b93506114348185602086016113d4565b61143d816113fe565b840191505092915050565b60008115159050919050565b61145d81611448565b82525050565b600081519050919050565b600082825260208201905092915050565b600061148a82611463565b611494818561146e565b93506114a48185602086016113d4565b6114ad816113fe565b840191505092915050565b6000610120820190506114ce600083018c6113a9565b6114db602083018b6113a9565b81810360408301526114ed818a61140f565b90506114fc60608301896112ea565b61150960808301886112ea565b61151660a08301876112ea565b61152360c08301866112ea565b61153060e0830185611454565b818103610100830152611543818461147f565b90509a9950505050505050505050565b6000806040838503121561156a57611569611314565b5b600061157885828601611335565b925050602061158985828601611335565b9150509250929050565b61159c81611397565b81146115a757600080fd5b50565b6000813590506115b981611593565b92915050565b600080fd5b600080fd5b600080fd5b60008083601f8401126115e4576115e36115bf565b5b8235905067ffffffffffffffff811115611601576116006115c4565b5b60208301915083600182028301111561161d5761161c6115c9565b5b9250929050565b60008083601f84011261163a576116396115bf565b5b8235905067ffffffffffffffff811115611657576116566115c4565b5b602083019150836001820283011115611673576116726115c9565b5b9250929050565b60008060008060006060868803121561169657611695611314565b5b60006116a4888289016115aa565b955050602086013567ffffffffffffffff8111156116c5576116c4611319565b5b6116d1888289016115ce565b9450945050604086013567ffffffffffffffff8111156116f4576116f3611319565b5b61170088828901611624565b92509250509295509295909350565b6000806040838503121561172657611725611314565b5b600061173485828601611335565b9250506020611745858286016115aa565b9150509250929050565b60006020820190506117646000830184611454565b92915050565b6000602082840312156117805761177f611314565b5b600061178e848285016115aa565b91505092915050565b60006020820190506117ac60008301846113a9565b92915050565b60006117bd82611377565b9050919050565b6117cd816117b2565b81146117d857600080fd5b50565b6000813590506117ea816117c4565b92915050565b6000806040838503121561180757611806611314565b5b6000611815858286016117db565b925050602061182685828601611335565b9150509250929050565b61183981611448565b811461184457600080fd5b50565b60008135905061185681611830565b92915050565b6000806040838503121561187357611872611314565b5b600061188185828601611335565b925050602061189285828601611847565b9150509250929050565b7f4e487b7100000000000000000000000000000000000000000000000000000000600052602260045260246000fd5b600060028204905060018216806118e357607f821691505b6020821081036118f6576118f561189c565b5b50919050565b7f766f74696e67206e6f742066696e697368656400000000000000000000000000600082015250565b600061193260138361146e565b915061193d826118fc565b602082019050919050565b6000602082019050818103600083015261196181611925565b9050919050565b7f616c726561647920657865637574656400000000000000000000000000000000600082015250565b600061199e60108361146e565b91506119a982611968565b602082019050919050565b600060208201905081810360008301526119cd81611991565b9050919050565b7f70726f706f73616c20646964206e6f7420706173730000000000000000000000600082015250565b6000611a0a60158361146e565b9150611a15826119d4565b602082019050919050565b60006020820190508181036000830152611a39816119fd565b9050919050565b7f696e73756666696369656e742074726561737572792062616c616e6365000000600082015250565b6000611a76601d8361146e565b9150611a8182611a40565b602082019050919050565b60006020820190508181036000830152611aa581611a69565b9050919050565b600081905092915050565b50565b6000611ac7600083611aac565b9150611ad282611ab7565b600082019050919050565b6000611ae882611aba565b9150819050919050565b7f7472616e73666572206661696c65640000000000000000000000000000000000600082015250565b6000611b28600f8361146e565b9150611b3382611af2565b602082019050919050565b60006020820190508181036000830152611b5781611b1b565b9050919050565b60008190508160005260206000209050919050565b60008154611b80816118cb565b611b8a81866113c3565b94506001821660008114611ba55760018114611bbb57611bee565b60ff198316865281151560200286019350611bee565b611bc485611b5e565b60005b83811015611be657815481890152600182019150602081019050611bc7565b808801955050505b50505092915050565b60006020820190508181036000830152611c118184611b73565b905092915050565b600081519050611c2881611830565b92915050565b600060208284031215611c4457611c43611314565b5b6000611c5284828501611c19565b91505092915050565b7f4e6f742072656c61796572206f72206f776e6572000000000000000000000000600082015250565b6000611c9160148361146e565b9150611c9c82611c5b565b602082019050919050565b60006020820190508181036000830152611cc081611c84565b9050919050565b7f696e76616c696420737472617465677900000000000000000000000000000000600082015250565b6000611cfd60108361146e565b9150611d0882611cc7565b602082019050919050565b60006020820190508181036000830152611d2c81611cf0565b9050919050565b7f4e487b7100000000000000000000000000000000000000000000000000000000600052601160045260246000fd5b6000611d6d826112e0565b91507fffffffffffffffffffffffffffffffffffffffffffffffffffffffffffffffff8203611d9f57611d9e611d33565b5b600182019050919050565b6000611db5826112e0565b9150611dc0836112e0565b9250828201905080821115611dd857611dd7611d33565b5b92915050565b7f4e487b7100000000000000000000000000000000000000000000000000000000600052604160045260246000fd5b60006020601f8301049050919050565b600082821b905092915050565b600060088302611e5a7fffffffffffffffffffffffffffffffffffffffffffffffffffffffffffffffff82611e1d565b611e648683611e1d565b95508019841693508086168417925050509392505050565b6000819050919050565b6000611ea1611e9c611e97846112e0565b611e7c565b6112e0565b9050919050565b6000819050919050565b611ebb83611e86565b611ecf611ec782611ea8565b848454611e2a565b825550505050565b600090565b611ee4611ed7565b611eef818484611eb2565b505050565b5b81811015611f1357611f08600082611edc565b600181019050611ef5565b5050565b601f821115611f5857611f2981611b5e565b611f3284611e0d565b81016020851015611f41578190505b611f55611f4d85611e0d565b830182611ef4565b50505b505050565b600082821c905092915050565b6000611f7b60001984600802611f5d565b1980831691505092915050565b6000611f948383611f6a565b9150826002028217905092915050565b611fad826113b8565b67ffffffffffffffff811115611fc657611fc5611dde565b5b611fd082546118cb565b611fdb828285611f17565b600060209050601f83116001811461200e5760008415611ffc578287015190505b6120068582611f88565b86555061206e565b601f19841661201c86611b5e565b60005b828110156120445784890151825560018201915060208501945060208101905061201f565b86831015612061578489015161205d601f891682611f6a565b8355505b6001600288020188555050505b505050505050565b60008190508160005260206000209050919050565b601f8211156120cc5761209d81612076565b6120a684611e0d565b810160208510156120b5578190505b6120c96120c185611e0d565b830182611ef4565b50505b505050565b6120da82611463565b67ffffffffffffffff8111156120f3576120f2611dde565b5b6120fd82546118cb565b61210882828561208b565b600060209050601f83116001811461213b5760008415612129578287015190505b6121338582611f88565b86555061219b565b601f19841661214986612076565b60005b828110156121715784890151825560018201915060208501945060208101905061214c565b8683101561218e578489015161218a601f891682611f6a565b8355505b6001600288020188555050505b505050505050565b82818337600083830152505050565b60006121be838561146e565b93506121cb8385846121a3565b6121d4836113fe565b840190509392505050565b60006040820190506121f460008301866113a9565b81810360208301526122078184866121b2565b9050949350505050565b7f696e73756666696369656e742062616c616e6365000000000000000000000000600082015250565b600061224760148361146e565b915061225282612211565b602082019050919050565b600060208201905081810360008301526122768161223a565b9050919050565b7f766f74696e67206e6f7420737461727465640000000000000000000000000000600082015250565b60006122b360128361146e565b91506122be8261227d565b602082019050919050565b600060208201905081810360008301526122e2816122a6565b9050919050565b7f766f74696e6720656e6465640000000000000000000000000000000000000000600082015250565b600061231f600c8361146e565b915061232a826122e9565b602082019050919050565b6000602082019050818103600083015261234e81612312565b9050919050565b7f616c726561647920766f74656400000000000000000000000000000000000000600082015250565b600061238b600d8361146e565b915061239682612355565b602082019050919050565b600060208201905081810360008301526123ba8161237e565b9050919050565b60006040820190506123d66000830185611454565b6123e360208301846112ea565b939250505056fea26469706673582212207662d447848776b5b5487094b7dbb9773bf4a60ca4fa27152937849d6c41de3064736f6c63430008140033",
  "linkReferences": {},
  "deployedLinkReferences": {}
}